S01200006176722B70695F7370692E737265631A
S11300000C947A000C948C000C948C000C948C004E
S11300100C948C000C948C000C948C000C948C002C
S11300200C948C000C948C000C948C000C948C001C
S11300300C948C000C948C000C948C000C948C000C
S11300400C948C000C948C000C948C000C948C00FC
S11300500C948C00A500A900AD00B100B500B90056
S1130060BD00C1008901A601C301E001FC01FC013E
S1130070FC01FC01FC01FC01FC01FC01FC01FC0194
S1130080FC01FC01FC01FC01FC01FC01FC01FC0184
S1130090FC01FC01FC01FC01FC01FC01FC01FC0174
S11300A0FC01FC018901A601C301E0010902260249
S11300B0430260027C027C027C027C027C027C02A1
S11300C07C027C027C027C027C027C027C027C023C
S11300D07C027C027C027C027C027C027C027C022C
S11300E07C027C027C027C027C027C0209022602E5
S11300F04302600211241FBECFE5D8E0DEBFCDBFAE
S113010020E0A0E6B0E001C01D92A336B207E1F7FB
S11301100E94C5000C94BE030C9400003E9A379ACA
S11301203098319A329A0895369A86B1349A84B1C5
S113013025B190E0922B089590E08830910520F548
S1130140FC01E65DFF4F0C94B803389839983A984F
S11301500895389A39983A9808953898399A3A9877
S11301600895389A399A3A980895389839983A9A65
S11301700895389A39983A9A08953898399A3A9A53
S11301800895389A399A3A9A08950E947D020E94F5
S11301908E00809160000E94890280936000833009
S11301A009F443C028F4813061F0823021F1F1CFA9
S11301B0853009F46EC008F452C0863009F483C057
S11301C0E8CF80E00E949C000E949400BC0180E083
S11301D090E00E94C70226E636E646EE5EE30E9401
S11301E02D030E949B02862F60936100709362002E
S11301F00E948E02CECF81E00E949C000E94940057
S1130200BC0180E090E00E94C70226E636E646EE96
S11302105EE30E942D030E949B02862F609361007F
S1130220709362000E948E02B4CF82E00E949C0010
S11302300E949400BC0180E090E00E94C70226E680
S113024036E646EE5EE30E942D030E949B02862F53
S113025060936100709362000E948E029ACF83E0E3
S11302600E949C000E949400BC0180E090E00E94E7
S1130270C70226E636E646EE5EE30E942D030E94A0
S11302809B02862F60936100709362000E948E022D
S113029080CF84E00E949C000E949400BC0180E016
S11302A090E00E94C70226E636E646EE5EE30E9430
S11302B02D030E949B02862F60936100709362005D
S11302C00E948E0266CF85E00E949C000E949400EA
S11302D0BC0180E090E00E94C70226E636E646EEC6
S11302E05EE30E942D030E949B02862F60936100AF
S11302F0709362000E948E024CCF90E0FC01E154A6
S1130300F109E432F10508F077C0EE5CFF4F0C947C
S1130310B803413069F42AB381E090E0AC0102C033
S1130320440F551F6A95E2F7BA01622B6ABB089520
S11303302AB381E090E0AC0102C0440F551F6A95D6
S1130340E2F7BA01609562236ABB0895413069F40B
S113035027B381E090E0AC0102C0440F551F6A95B9
S1130360E2F7BA01622B67BB089527B381E090E0FE
S1130370AC0102C0440F551F6A95E2F7BA016095BB
S1130380622367BB0895413069F424B381E090E0AF
S1130390AC0102C0440F551F6A95E2F7BA01622B03
S11303A064BB089524B381E090E0AC0102C0440F23
S11303B0551F6A95E2F7BA016095622364BB0895FC
S11303C0413069F421B381E090E0AC0102C0440FF4
S11303D0551F6A95E2F7BA01622B61BB089521B3F8
S11303E081E090E0AC0102C0440F551F6A95E2F72A
S11303F0BA016095622361BB089590E0FC01E15469
S1130400F109E432F10508F077C0EA5AFF4F0C9481
S1130410B803413069F42BB381E090E0AC0102C031
S1130420440F551F6A95E2F7BA01622B6BBB08951E
S11304302BB381E090E0AC0102C0440F551F6A95D4
S1130440E2F7BA01609562236BBB0895413069F409
S113045028B381E090E0AC0102C0440F551F6A95B7
S1130460E2F7BA01622B68BB089528B381E090E0FB
S1130470AC0102C0440F551F6A95E2F7BA016095BA
S1130480622368BB0895413069F425B381E090E0AC
S1130490AC0102C0440F551F6A95E2F7BA01622B02
S11304A065BB089525B381E090E0AC0102C0440F20
S11304B0551F6A95E2F7BA016095622365BB0895FA
S11304C0413069F422B381E090E0AC0102C0440FF2
S11304D0551F6A95E2F7BA01622B62BB089522B3F5
S11304E081E090E0AC0102C0440F551F6A95E2F729
S11304F0BA016095622362BB08956E9A41E066E09A
S113050082E40E947D0140E065E082E40E947D0176
S113051008958FB9779BFECF8FB10895CF93C82FDD
S113052040E064E082E40E94FD01CFB9779BFECFF6
S11305308FB1CF91089570D088F09F5790F0B92F64
S11305409927B751A0F0D1F0660F771F881F991F24
S11305501AF0BA95C9F712C0B13081F077D0B1E082
S1130560089574C0672F782F8827B85F39F0B93F92
S1130570CCF3869577956795B395D9F73EF4909526
S11305808095709561957F4F8F4F9F4F0895E894A4
S113059009C097FB3EF490958095709561957F4FC7
S11305A08F4F9F4F9923A9F0F92F96E9BB27939575
S11305B0F695879577956795B795F111F8CFFAF485
S11305C0BB0F11F460FF1BC06F5F7F4F8F4F9F4FB6
S11305D016C0882311F096E911C0772321F09EE814
S11305E0872F762F05C0662371F096E8862F70E07A
S11305F060E02AF09A95660F771F881FDAF7880F54
S11306009695879597F9089557FD9058440F551F6F
S113061059F05F3F71F04795880F97FB991F61F080
S11306209F3F79F087950895121613061406551FF7
S1130630F2CF4695F1DF08C0161617061806991F63
S1130640F1CF86957105610508940895E894BB2758
S113065066277727CB0197F908950BD078C069D026
S113066028F06ED018F0952309F05AC05FC0112409
S1130670EECFCADFA0F3959FD1F3950F50E0551F3D
S1130680629FF001729FBB27F00DB11D639FAA27E3
S1130690F00DB11DAA1F649F6627B00DA11D661F32
S11306A0829F2227B00DA11D621F739FB00DA11D53
S11306B0621F839FA00D611D221F749F3327A00D0D
S11306C0611D231F849F600D211D822F762F6A2FA9
S11306D011249F5750408AF0E1F088234AF0EE0F2E
S11306E0FF1FBB1F661F771F881F91505040A9F73B
S11306F09E3F510570F014C0AACF5F3FECF3983EC3
S1130700DCF3869577956795B795F795E7959F5FA1
S1130710C1F7FE2B880F911D9695879597F908953B
S113072097F99F6780E870E060E008959FEF80ECA0
S1130730089500240A941616170618060906089543
S113074000240A9412161306140605060895092EA9
S11307500394000C11F4882352F0BB0F40F4BF2B18
S113076011F460FF04C06F5F7F4F8F4F9F4F089558
S1130770EE0FFF1F0590F491E02D0994F894FFCF3C
S9030000FC
