S01300006164632B706F742B6C63642E737265630D
S11300000C94C2000C94DF000C94DF000C94DF000D
S11300100C94DF000C94DF000C94DF000C94DF00E0
S11300200C94DF000C94DF000C94DF000C94DF00D0
S11300300C94DF000C94DF000C94DF000C94DF00C0
S11300400C94DF000C94DF000C94DF000C94DF00B0
S11300500C94DF009002940298029C02A002A40275
S1130060A802AC02BC02D902F60213032F032F0329
S11300702F032F032F032F032F032F032F032F03EC
S11300802F032F032F032F032F032F032F032F03DC
S11300902F032F032F032F032F032F032F032F03CC
S11300A02F032F03BC02D902F60213033C035903A6
S11300B076039303AF03AF03AF03AF03AF03AF0301
S11300C0AF03AF03AF03AF03AF03AF03AF03AF039C
S11300D0AF03AF03AF03AF03AF03AF03AF03AF038C
S11300E0AF03AF03AF03AF03AF03AF033C03590345
S11300F076039303BF03C603CD03D40305040504A9
S113010005040504050405040504050405040504A3
S11301100504050405040504050405040504050493
S11301200504050405040504050405040504050483
S113013005040504BF03C603CD03D403EA03F10396
S1130140F803FF0305040504050405040504050478
S11301500504050405040504050405040504050453
S11301600504050405040504050405040504050443
S1130170050405040504050405040504EA03F10364
S1130180F803FF0311241FBECFE5D8E0DEBFCDBFC7
S113019010E0A0E6B0E0E6E8FDE002C005900D92B4
S11301A0AC37B107D9F720E0ACE7B0E001C01D924D
S11301B0AF37B207E1F70E94E1000C94C1060C943A
S11301C000000E9453040E9479020E94280560E8FE
S11301D075E280E090E00E94340580E690E00E94A1
S11301E0FA0480E00E9487020E947F02BC0180E042
S11301F090E00E94990526E636E646EE5EE30E940C
S1130200FF050E946D0570937D0060937C008CE671
S113021090E00E945E0520917C0030917D0036952F
S1130220279536952795ABE7B4E10E94B206AC0159
S1130230569547959A01ADECBCEC0E94B206969592
S1130240879596958795969587959C01220F331FE0
S1130250880F991F880F991F880F991F820F931F6A
S1130260481B590B80E3840F80937E000E945A053B
S113027020917C0030917D00ADECBCEC0E94B20674
S1130280AC015695479556954795569547959A01CD
S11302900E94B2069695879596958795969587952B
S11302A09C01220F331F880F991F880F991F880FF5
S11302B0991F820F931F481B590B80E3840F80936F
S11302C07E000E945A0540917C0050917D009A0165
S11302D0ADECBCEC0E94B2069695879596958795F1
S11302E0969587959C01220F331F880F991F880FBD
S11302F0991F880F991F820F931F481B590B80E386
S1130300840F80937E000E945A0588E790E00E9443
S11303105E058DE00E945A0580917C0090917D00DD
S11303208A309105A0F56FE081E00E94090580E222
S11303300E94CA0480E20E94CA046CE081E00E9428
S1130340090540917C0050917D009A01ADECBCEC14
S11303500E94B2069695879596958795969587956A
S11303609C01220F331F880F991F880F991F880F34
S1130370991F820F931F9A01281B390BC901805DB5
S11303800E94CA0489E790E00E94FA042ACF9C01E3
S11303902A5031092A35310508F042C060E181E074
S11303A00E94090580E20E94CA046CE081E00E9478
S11303B0090520917C0030917D00ADECBCEC0E94DD
S11303C0B206969587959695879596958795805DBF
S11303D00E94CA0440917C0050917D009A01ADECCA
S11303E0BCEC0E94B206969587959695879596954E
S11303F087959C01220F331F880F991F880F991F1F
S1130400880F991F820F931F9A01281B390BC9016A
S1130410805D0E94CA0489E790E00E94FA04E1CE5C
S11304208436910508F4DDCE6CE081E00E94090574
S113043020917C0030917D0036952795369527953F
S1130440ABE7B4E10E94B20696958795805D0E9461
S1130450CA0420917C0030917D00ADECBCEC0E947C
S1130460B206AC01569547955695479556954795CE
S11304709A010E94B20696958795969587959695CA
S113048087959C01220F331F880F991F880F991F8E
S1130490880F991F820F931F9A01281B390BC901DA
S11304A0805D0E94CA0440917C0050917D009A01B5
S11304B0ADECBCEC0E94B20696958795969587950F
S11304C0969587959C01220F331F880F991F880FDB
S11304D0991F880F991F820F931F9A01281B390BAC
S11304E0C901805D0E94CA0489E790E00E94FA0471
S11304F078CE3E9A379A3098319A329A0895369A3D
S113050086B1349A84B125B190E0922B089590E09D
S11305108830910520F5FC01E65DFF4F0C94AC0694
S1130520389839983A980895389A39983A980895A5
S11305303898399A3A980895389A399A3A98089591
S1130540389839983A9A0895389A39983A9A089581
S11305503898399A3A9A0895389A399A3A9A08956D
S113056090E0FC01E154F109E432F10508F077C0B0
S1130570EE5CFF4F0C94AC06413069F42AB381E081
S113058090E0AC0102C0440F551F6A95E2F7BA012E
S1130590622B6ABB08952AB381E090E0AC0102C0EB
S11305A0440F551F6A95E2F7BA01609562236ABB4E
S11305B00895413069F427B381E090E0AC0102C0B2
S11305C0440F551F6A95E2F7BA01622B67BB089581
S11305D027B381E090E0AC0102C0440F551F6A9537
S11305E0E2F7BA016095622367BB0895413069F46C
S11305F024B381E090E0AC0102C0440F551F6A951A
S1130600E2F7BA01622B64BB089524B381E090E061
S1130610AC0102C0440F551F6A95E2F7BA01609518
S1130620622364BB0895413069F421B381E090E012
S1130630AC0102C0440F551F6A95E2F7BA01622B60
S113064061BB089521B381E090E0AC0102C0440F86
S1130650551F6A95E2F7BA016095622361BB08955C
S113066090E0FC01E154F109E432F10508F077C0AF
S1130670EA5AFF4F0C94AC06413069F42BB381E085
S113068090E0AC0102C0440F551F6A95E2F7BA012D
S1130690622B6BBB08952BB381E090E0AC0102C0E8
S11306A0440F551F6A95E2F7BA01609562236BBB4C
S11306B00895413069F428B381E090E0AC0102C0B0
S11306C0440F551F6A95E2F7BA01622B68BB08957F
S11306D028B381E090E0AC0102C0440F551F6A9535
S11306E0E2F7BA016095622368BB0895413069F46A
S11306F025B381E090E0AC0102C0440F551F6A9518
S1130700E2F7BA01622B65BB089525B381E090E05E
S1130710AC0102C0440F551F6A95E2F7BA01609517
S1130720622365BB0895413069F422B381E090E00F
S1130730AC0102C0440F551F6A95E2F7BA01622B5F
S113074062BB089522B381E090E0AC0102C0440F83
S1130750551F6A95E2F7BA016095622362BB08955A
S1130760411129C06F7090E0FC01E154F109E432B9
S1130770F10508F04AC0E658FF4F0C94AC068BB361
S1130780807F8BBB8BB3682B6BBB089588B3807F52
S113079088BB88B3682B68BB089585B3807F85BB0D
S11307A085B3682B65BB089582B3807F82BB82B317
S11307B0682B62BB0895413041F56295607F90E0FB
S11307C0FC01E154F109E432F105F8F4E256FF4F7B
S11307D00C94AC068BB38F708BBB8BB3682B6BBB49
S11307E0089588B38F7088BB88B3682B68BB08955D
S11307F085B38F7085BB85B3682B65BB089582B3C1
S11308008F7082BB82B3682B62BB089541E050E0D5
S113081065E070E084E490E00E9430038FE99FE09B
S11308200197F1F700C0000040E050E065E070E09F
S113083084E490E00E9430038FE99FE00197F1F790
S113084000C000000895CF93C82F682F62956F7081
S113085070E041E050E083E490E00E94B00340E0A7
S113086050E067E070E084E490E00E9430030E946E
S113087006046C2F70E041E050E083E490E00E94B5
S1130880B00340E050E067E070E084E490E00E9450
S113089030030E9406048FEC97E00197F1F700C043
S11308A00000CF9108952FE788E391E02150804024
S11308B09040E1F700C0000041E050E064E070E0E7
S11308C083E490E00E94B00241E050E065E070E013
S11308D083E490E00E94B00241E050E066E070E002
S11308E083E490E00E94B00241E050E067E070E0F1
S11308F083E490E00E94B00241E050E065E070E0E3
S113090084E490E00E94B00241E050E067E070E0CF
S113091084E490E00E94B00241E050E066E070E0C0
S113092084E490E00E94B00240E050E066E070E0B1
S113093084E490E00E94300382E00E9423048FE16B
S11309409EE40197F1F700C0000088E20E942304AE
S11309508FEC97E00197F1F700C000008CE00E9453
S113096023048FEC97E00197F1F700C0000081E0C9
S11309700E9423048FE19EE40197F1F700C0000078
S113098086E00E9423048FEC97E00197F1F700C002
S113099000000895CF93C82F682F62956F7070E0A0
S11309A041E050E083E490E00E94B00341E050E075
S11309B067E070E084E490E00E9430030E94060443
S11309C06C2F70E041E050E083E490E00E94B003BB
S11309D041E050E067E070E084E490E00E9430037E
S11309E00E9406048FEC97E00197F1F700C0000025
S11309F0CF910895CF93DF93EC018881882331F060
S1130A0021960E94CA0489918111FBCFDF91CF9175
S1130A1008959FEF980F923070F49FEF960F9031E6
S1130A2060F4813019F42FE7260F08C0823031F4C6
S1130A302FEB260F03C020E801C020E8822F0E947C
S1130A4023048FEC97E00197F1F700C000000895AC
S1130A506E9A41E066E082E40E94B00240E065E004
S1130A6082E40E94B0020895DC01CB01880F991F33
S1130A70AA1FBB1F880F991FAA1FBB1F9C01AD0192
S1130A80220F331F441F551F220F331F441F551FAE
S1130A9060E072E18AE790E00E948A062150310901
S1130AA030BD29B9539A549A86E880BD8AB18AB96F
S1130AB0599808955D9BFECF8CB90895CF93DF9329
S1130AC0EC018881882331F021960E945A0589918E
S1130AD08111FBCFDF91CF91089570D088F09F579B
S1130AE090F0B92F9927B751A0F0D1F0660F771F76
S1130AF0881F991F1AF0BA95C9F712C0B13081F056
S1130B0077D0B1E0089574C0672F782F8827B85F35
S1130B1039F0B93FCCF3869577956795B395D9F7B6
S1130B203EF490958095709561957F4F8F4F9F4FC0
S1130B300895E89409C097FB3EF4909580957095CC
S1130B4061957F4F8F4F9F4F9923A9F0F92F96E915
S1130B50BB279395F695879577956795B795F1118A
S1130B60F8CFFAF4BB0F11F460FF1BC06F5F7F4F27
S1130B708F4F9F4F16C0882311F096E911C0772339
S1130B8021F09EE8872F762F05C0662371F096E842
S1130B90862F70E060E02AF09A95660F771F881F11
S1130BA0DAF7880F9695879597F9089557FD905829
S1130BB0440F551F59F05F3F71F04795880F97FB1D
S1130BC0991F61F09F3F79F08795089512161306D7
S1130BD01406551FF2CF4695F1DF08C01616170606
S1130BE01806991FF1CF869571056105089408953B
S1130BF0E894BB2766277727CB0197F908950BD094
S1130C0078C069D028F06ED018F0952309F05AC046
S1130C105FC01124EECFCADFA0F3959FD1F3950FE7
S1130C2050E0551F629FF001729FBB27F00DB11D6C
S1130C30639FAA27F00DB11DAA1F649F6627B00DFC
S1130C40A11D661F829F2227B00DA11D621F739FE5
S1130C50B00DA11D621F839FA00D611D221F749FF3
S1130C603327A00D611D231F849F600D211D822F3A
S1130C70762F6A2F11249F5750408AF0E1F0882381
S1130C804AF0EE0FFF1FBB1F661F771F881F91508E
S1130C905040A9F79E3F510570F014C0AACF5F3FA2
S1130CA0ECF3983EDCF3869577956795B795F795C1
S1130CB0E7959F5FC1F7FE2B880F911D9695879549
S1130CC097F9089597F99F6780E870E060E00895C8
S1130CD09FEF80EC089500240A9416161706180650
S1130CE00906089500240A9412161306140605062C
S1130CF00895092E0394000C11F4882352F0BB0FBD
S1130D0040F4BF2B11F460FF04C06F5F7F4F8F4F1F
S1130D109F4F0895A1E21A2EAA1BBB1BFD010DC013
S1130D20AA1FBB1FEE1FFF1FA217B307E407F50797
S1130D3020F0A21BB30BE40BF50B661F771F881F73
S1130D40991F1A9469F760957095809590959B0109
S1130D50AC01BD01CF010895EE0FFF1F0590F49182
S1130D60E02D0994A29FB001B39FC001A39F700D11
S1130D70811D1124911DB29F700D811D1124911D9F
S1090D800895F894FFCF72
S1130D8644697374616E6365203A20004469737420
S10F0D96616E6365203D2000206D6D003F
S9030000FC
